:020000041000EA
:1000000000B5324B212058609868022188439860DF
:10001000D860186158612E4B002199600221596106
:100020000121F02299502B49196001219960352056
:1000300000F044F80222904214D00621196600F024
:1000400034F8196E01211966002018661A6600F04E
:100050002CF8196E196E196E052000F02FF8012189
:100060000842F9D1002199601B49196000215960AB
:100070001A491B48016001219960EB211966A021F2
:10008000196600F012F800219960164914480160C1
:100090000121996001BC002800D000471248134993
:1000A000086003C880F30888084703B5996A0420EC
:1000B0000142FBD001200142F8D103BD02B5186610
:1000C0001866FFF7F2FF186E186E02BD00000240BE
:1000D000000000180000070000035F00212200005C
:1000E000F4000018222000A00001001008ED00E03C
:1000F00000000000000000000000000074B24E7A12
:1001000000200420F7010010C3010010C5010010F9
:10011000C1010010C1010010C1010010C101001097
:10012000C1010010C1010010C1010010C701001081
:10013000C1010010C1010010C9010010CB01001065
:10014000CD010010CD010010CD010010CD01001037
:10015000CD010010CD010010CD010010CD01001027
:10016000CD010010CD010010CD010010CD01001017
:10017000CD010010CD010010CD010010CD01001007
:10018000CD010010CD010010CD010010CD010010F7
:10019000CD010010CD010010CD010010CD010010E7
:1001A000CD010010CD010010CD010010CD010010D7
:1001B000CD010010CD010010CD010010CD010010C7
:1001C00000BE00BE00BE00BE00BE00BEEFF3058054
:1001D000103800BEF2EB8871A8300010D03000104B
:1001E0003802001090A31AE71E481F49086006C88D
:1001F00081F3088810471D480068002801D019487D
:10020000F3E70DA40ECC002902D000F012F8F9E7B4
:100210001749184A002000E001C19142FCD116495B
:100220008847164988471649884700BEFDE701C937
:1002300001C29A42FBD37047D0300010C0000020AA
:100240004802002058320010000004200000042062
:10025000583200100010042000100420000000009C
:10026000704700000000000008ED00E0000000D032
:10027000480200206C0A00205D2500106D06001069
:1002800055250010F8B5C04606480749091A8B10D5
:10029000C90FC91810B5491003D0044B002B00D06A
:1002A000984710BD480200204802002000000000CE
:1002B000054B10B5002B03D00449054800E000BFF2
:1002C000FFF7E2FF10BDC046000000002809002033
:1002D000902E001070B5134E3468756801F080FCE4
:1002E000001BA941002904DC00D070BD0E4B9842D0
:1002F000FBD901F075FC3060716001210B4B1A785D
:100300004A401A701B78002B05D0D02380221B0690
:1003100052015A61E9E7D02380221B0652019A61FB
:10032000E3E7C046C80300203F0D0300680A002031
:1003300070B5134E3468756801F052FC001BA9417A
:10034000002904DC00D070BD0E4B9842FBD901F0AF
:1003500047FC3060716001210B4B1A784A401A70DB
:100360001B78002B05D0D02380221B0692015A61F6
:10037000E9E7D02380221B0692019A61E3E7C04699
:10038000D00300203F0D0300690A002010B50B20A8
:1003900000F040FDD024802324061B0163620C2062
:1003A00000F038FD80235B0163620D2000F032FD18
:1003B00080239B0163620122042105201A4B00F077
:1003C000C1FC1A4B01220421062000F0BBFC02F004
:1003D000C5F9E1211648490201F050FC0221002034
:1003E00000F082FC0221012000F07EFC114912483D
:1003F00002F0E2FB03210E2000F076FC03210F2027
:1004000000F072FC002201210E2000F087FC002287
:1004100001210F2000F082FC00F0ECF900F0A0F9BF
:10042000072000F029F910BDD5020010310300109B
:1004300000400340801A060038020020F0B54E4606
:10044000DE46574645461022E0B57C4B87B09846BD
:100450007B4B7C4C00937C4B7C4E01937C4B0293FA
:100460007C4B03937C4B9B467C4B9A467C4B99463A
:100470007C4B04937C4B0593A3691A4251D04346AD
:100480001B7800210020DFB2002B63D00D2500F087
:10049000E9FA009800F0E8FA0023F75E4C20002209
:1004A0002023AC460199002A7AD187427FD0A269E5
:1004B0001342FCD120600A7801310D3A504242418A
:1004C0000878D2B20028EED15B461B7801210020CB
:1004D000DFB2002B00D183E00D2500F0C3FA5046B7
:1004E00000F0C2FA0023F75E49464C200022202388
:1004F000AC46002A61D1874266D0A2691342FCD182
:1005000020600A7801310D3A504242410878D2B257
:100510000028EED1642001F0C5FA1022A3691A4226
:10052000ADD11022A3691A42FBD12768FFB238006F
:1005300000F096FA00F01EF938003038C0B20928F1
:100540009DD800F0EBF843461B7800210020DFB275
:10055000002B9BD10D2500F085FA029800F084FA5B
:100560000023F05E4C212023AC46039A002F10D1CB
:1005700088422FD0A7693B42FCD121601778013215
:100580000D3F79424F411178FFB200299CD0002FD6
:10059000EED0A7693B42F0D0A7693B42F9D1ECE726
:1005A000A269134286D0A2691342F9D182E7A269F7
:1005B0001342FCD16246226079E7A26913429FD0C0
:1005C000A2691342F9D19BE7A2691342FCD16246AA
:1005D000226092E7A7693B42FCD167462760C9E7E2
:1005E0000D2500F03FFA049800F03EFA0023F05E7B
:1005F0004C212023AC46059A002F11D1884216D0F9
:10060000A7693B42FCD12160177801320D3F794246
:100610004F411178FFB2002900D17BE7002FEDD0C8
:10062000A7693B42EFD0A7693B42F9D1EBE7A76945
:100630003B42FCD165462560E2E7C046680A0020DF
:10064000902E001000400340A42E0010600A0020ED
:10065000B82E0010D02E0010690A0020E82E0010DD
:10066000FC2E0010102F0010242F001010B5FFF7E3
:100670008DFEFFF7E3FEC04670B5234984B02348E2
:1006800002F0CCFA8022520200928022C31C920512
:1006900003921B03C20113431D4A0500134001933B
:1006A0001C4B0520029301F067FC01F0BBFE1A49C8
:1006B00001F09DFEEC21890501F096FE061C01F07B
:1006C000D9FE84B20023002C0ED0200001F0AAFE37
:1006D000011C301C01F085FE8721C90501F09BFE3D
:1006E00001F0C8FEC3B21B0224041C430094074C53
:1006F0006B462A000021200002F012FB0122236831
:100700001343236004B070BDFC2F00100000205084
:10071000FFFFFF9F00000670007C124A70B58AB090
:100720006C4622000C4B62CB62C262CB62C262CBCF
:1007300062C21B680A21136001F0A4FDC9B28900DE
:1007400008598021054A0002490253680B42FCD136
:1007500010610AB070BDC0460C300010000020507F
:10076000802210B500210248D20001F0C5FE10BD64
:10077000E00400201D4BF0B5474698468023CE4646
:100780005B01B0260025994680B5194F85B003ACB2
:100790006670022322003C2125703800009502F08B
:1007A00033FA022322003C2125803800009502F014
:1007B0002BFA4B46220023803C210223380000956F
:1007C00002F022FA802342463C213800009502F0D4
:1007D0001BFA80239C460136F6B2E044B82ED7D1EE
:1007E00005B0C0BCB946B046F0BDC046E00400202C
:1007F00038020020F0B50025802785B0854E864B55
:1008000003AC23802200BF0102233C21300000956D
:1008100002F0FAF92200278002233C2130000095E3
:1008200002F0F2F92200258002233C2130000095DD
:1008300002F0EAF9794B220023803C2102233000A8
:10084000009502F0E1F9764B220023803C2102233F
:100850003000009502F0D8F92200258002233C21C7
:100860003000009502F0D0F980235B012380220044
:1008700002233C213000009502F0C6F98023DB0101
:100880002380220002233C213000009502F0BCF9B5
:10089000644B220023803C2102233000009502F0AB
:1008A000B3F9614B2200238003333C2130000095D3
:1008B000FF3302F0A9F95D4B220023803C21022383
:1008C0003000009502F0A0F9594B220023803C2112
:1008D00002233000009502F097F9564B2200238046
:1008E0003C2102233000009502F08EF9FC239B018D
:1008F0002380220002233C213000009502F084F97D
:100900004D4B220023803C2102233000009502F051
:100910007BF94A4B220023803C21022330000095C2
:1009200002F072F92200258002233C21300000955C
:1009300002F06AF9424B220023803C21022330005E
:10094000009502F061F93F4B220023803C210223F5
:100950003000009502F058F93B4B220023803C21E7
:1009600002233000009502F04FF988239B01238079
:10097000220002233C213000009502F045F9334B60
:10098000220023803C2102233000009502F03CF934
:1009900090235B012380220002233C21300000953C
:1009A00002F032F92A4B220023803C21022330003E
:1009B000009502F029F92200278002233C21300013
:1009C000009502F021F9234B220023803C210223D1
:1009D0003000009502F018F9A0235B01238022006B
:1009E00002233C213000009502F00EF91A4B220040
:1009F00023803C2102233000009502F005F980227B
:100A00000021D200154801F077FDFFF7B3FE05B0D5
:100A1000F0BDC0463802002000AEFFFF00B0FFFF6F
:100A200000C8FFFF0081FFFF00FFFFFF00A1FFFFE5
:100A300000A6FFFF00A8FFFF00A4FFFF00D3FFFFF9
:100A400000D5FFFF00F0FFFF00D9FFFF00DAFFFF36
:100A500000DBFFFF008DFFFF00AFFFFFE004002081
:100A60007047C0467047C04600E001300378002B55
:100A7000FBD17047D0231B061B68974A9900F0B53D
:100A80004E46894651585A4253412F2257464546B1
:100A9000DE465B4293439846904BE0B59C4683B05C
:100AA00000270191E044002939D08D4B0F269B4649
:100AB0004246FB0808339B009C5801233D009A46A0
:100AC0000837002C22D031002140264218D05B4646
:100AD0004A469A582B00EA40203BDB171340524607
:100AE00013420DD1072208002A40920090400200D4
:100AF000EB087C483C339B001A502800019B984728
:100B000024090135002C01D0BD42DCD3202FCFD1E8
:100B100003B0F0BCBB46B246A946A046F0BD704B40
:100B200000200F229B46C6083300414608339B0035
:100B30005B5801000830002B00D1B2E017001F40C5
:100B4000BC461A420FD04C465D460F002C59203F40
:100B5000CC40FF1727400124274204D16446614F4F
:100B60003C36B600F4511E0900D19AE01700374018
:100B7000324213D04C1CA4465D464C462C59654667
:100B80000E00EC401F3EF61726400124264205D1F8
:100B9000EE08544C3C363F01B60037511E0A00D1D6
:100BA0007FE017003740324213D08C1CA4465D46CC
:100BB0004C462C5965460E00EC401E3EF61726406A
:100BC0000124264205D1EE08464C3C363F02B600D1
:100BD00037511E0B65D01700374032420DD0CC1C68
:100BE000A4465D464C462C5965460E00EC401D3E21
:100BF000F61726400124264257D01E0C51D014006F
:100C00003440A44632420BD04C46354E0F1D365967
:100C1000FE40B2460E0054461C3EF60F26424BD014
:100C20001E0D3ED014003440A44632420BD04C4638
:100C30002B4E4F1D3659FE40B2460E0054461B3E09
:100C4000F60F264240D01E0E2BD014003440A4468E
:100C5000324212D04C46224E8F1D3659FE40B246CB
:100C60000E0054461A3EF60F264206D16446FE0890
:100C70003C3627061B4CB60037511B0FCF1D002BEF
:100C80000FD04C465D462E590124FE401939C91734
:100C90003140214205D1F908124E3C311B07890031
:100CA0008B51202800D03EE732E7EE080D4C3C3651
:100CB0003F03B6003751A0E76446FF083C37BE004B
:100CC000084F2404F451ABE76446FE083C36270580
:100CD000044CB6003751B6E7E0080020304101402F
:100CE0005009002000400140094A83009A1810B5BD
:100CF00014684022544080322240064CC000A44672
:100D000063441A60044B9C466044416010BDC04679
:100D100004C0014004D0014000400140074B800066
:100D2000C3181B68C90092000A435A400C231340A1
:100D3000034A9446604403607047C04604C00140C3
:100D400004D00140F8B545469846D0231B06DE4640
:100D50001C689B462B4B57469A46A3004E46994625
:100D6000E0B5534616004A469B5807000D00002B7D
:100D700034D04346002B3FD053464A464146995013
:100D8000D0231B061C6863425C412F22072063426C
:100D900093431D4A38409446FA081100800085406C
:100DA0003C311A486344890092000D509B18002E74
:100DB0000ED0802292019446634401210D201D60D3
:100DC00000F0C4F8F0BCBB46B246A946A046F8BD48
:100DD000C0229201944663441D60F3E74346002B12
:100DE000D1D0534641460D2099500022084900F0C9
:100DF000E9F85B461C68C6E70D20054900F0DCF900
:100E0000BAE7C046E0080020304101400040014000
:100E1000750A00100123D022834012069362936169
:100E2000094A83009A1811684022514080320A40D2
:100E30000649C0008C4663441A60054B9C46052356
:100E4000604443607047C04604C0014004D0014084
:100E5000004001400FB400B5084883B001F0D0FC59
:100E6000049B002B07D005A91800019101F058FB45
:100E7000034801F0C5FC012001F06AFB3C2F001083
:100E80000C2F0010EFF3108072B6034A1368002B8A
:100E9000FCD0BFF35F8F70472C0100D0BFF35F8F92
:100EA0000022024B1A6080F3108870472C0100D09A
:100EB00070B5EFF3108C72B60D4D2B68002BFCD083
:100EC000BFF35F8F0724CB08C618C05C01230C401A
:100ED000A3401C000440034207D118433070BFF305
:100EE0005F8F2C608CF3108870BD1000FFF7B2FF8D
:100EF0002C0100D0044A1078431CDBB2172B00D918
:100F0000102313707047C046980100200021044B45
:100F1000044ABFF35F8F02C39342FAD17047C046C1
:100F2000000100D0800100D0054B064A1360064A3C
:100F3000136053609360D360136153619361704792
:100F40008080808000E400E004E400E01F2318407B
:100F50001E3B8340002905D0C021044A490053505C
:100F600013607047802201498B50FAE700E100E0EE
:100F700070B50D00EFF3108672B60F4A1368002BA0
:100F8000FCD0BFF35F8F0D4B10309B6884001B5962
:100F90000B4A934203D09D4201D001F095F8074BD4
:100FA0009B681D51BFF35F8FBFF35F8F0022024B21
:100FB0001A6086F3108870BD240100D000ED00E0B7
:100FC000CD010010F0B557464E46DE464546E0B529
:100FD00085B0060000911700EFF3108B72B66A4AD5
:100FE0001368002BFCD0BFF35F8F0025674B5D5764
:100FF0009A46002D00DAA9E06B00654C01935B195D
:101000009B009846A146C1444B4652469B791036F8
:101010001370604BB6009B6899590B1B2F2B33D96B
:101020005D4B994200D0ACE0019B42469C465B4B35
:101030006544AD0063535A4B0232A218043B9B1A1D
:101040001B05584A5B0D651913436B80564B0121F4
:10105000AB80FF23AB71009BEF71AB604B460B4342
:1010600019004C4B9B689951BFF35F8FBFF35F8FA3
:101070000022454B1A608BF3108805B0F0BCBB46CC
:10108000B246A946A046F0BD01200A008243D379AA
:101090008C46BB4231D84546130044491B1B5B417B
:1010A0005943090D3D4B63533D4B02356519043BD4
:1010B0005B1B1B053B4D5B0D2B43AA464D466B80CE
:1010C0000425AC465546E044131F44441B1B1B0536
:1010D0005B0D1D434B46997100999D80996049466F
:1010E000DF71334B01431360BBE75800C018800029
:1010F0002018C179B9422FD902000623D356002BFC
:10110000F3DA02932B4B61460393131D9A46042393
:101110005B429C46E14450464B461B1A1B055B0D47
:101120009C46204B95719846634640460343938006
:10113000019B5A199200039BA418A380029B1C4A8E
:10114000A371009B2260E771A3608AE700F0BCFFF7
:10115000002553465D574FE7908802934005131DC5
:101160009A46031561469C464046D4446346043083
:101170002018181AE0230005400D1B0218430390A5
:10118000C5E700F0A1FF4FE7240100D06A0A002064
:101190009C01002000ED00E0CD01001000A1FFFF48
:1011A000CC01002000E0FFFF01BDFFFFAAAA000064
:1011B0000148804701BD0000F0B5DE4657464E4667
:1011C0004546E0B50C0083B0EFF3108872B6634A71
:1011D0001368002BFCD0BFF35F8F614B61499A68A5
:1011E000030010339F00D55900938D4243D0A54290
:1011F00054D05D4EAA1B2F2A3DD85C4B9C461B68E1
:101200009A4601231A0099468240534613401F22F2
:1012100001934B46024093409A46802263465046D3
:101220009850BFF35F8FEFF305839B46002B37D0B9
:10123000009B5B4501D000F047FF2A004B469A43D4
:101240009068844208D177E04B005B189B00F3184C
:101250009868844236D01A00062151560029F3DAE4
:10126000844255D0019B002B27D0C02251463F4BD2
:101270005200995019603A4B9B68DD51BFF35F8F64
:10128000BFF35F8F0022354B1A6088F3108803B0DC
:10129000F0BCBB46B246A946A046F0BD0D00EAE749
:1012A0002A004B469A4390688442D5D106201056B6
:1012B000130000280ADA0D0032E0802351462B4A41
:1012C000D150D8E706201856002822DB420011181A
:1012D000890074188946A1689960E179D97106215D
:1012E00061569971002925DBA488F11A640524153B
:1012F0004C440919E0240905490D24022143998031
:1013000013181B4A9B001178F31899711070A9E704
:1013100013005946002914D1FF319171154991806C
:1013200013490A789A71144A9B1B5B415A43120D68
:101330000A7097E71149E2E70620105613000028CB
:10134000C4DA0F4A0F49D21A083A5002400D01433D
:1013500099800D4952080A43DA8083E7240100D0BE
:1013600000ED00E0CD0100109C01002000E100E054
:101370006A0A002001BDFFFFAAAA000001BD00000B
:10138000D601002000F0FFFF00F8FFFF70B5012438
:101390000443EFF30581EFF3108C72B6214A136812
:1013A000002BFCD0BFF35F8F1F4B05001F4AED1AC7
:1013B0006D416A43120D1E4D8900AE6852B27658D7
:1013C000A6421CD00621595691421CD012215956D2
:1013D000914222D01E215956914220D02A2159569D
:1013E0000324914210D0134B19781A708171BFF306
:1013F0005F8F00220B4B1A608CF3108870BDAB68B6
:101400000D4C5C50EFE700246100091989005B185E
:10141000FF21997109499980E5E70124F4E7022445
:10142000F2E7C046240100D09C010020AAAA0000D7
:1014300000ED00E06A0A0020CD01001001BDFFFFB1
:10144000024B9C46614489000160704740000034B3
:1014500070B5114C114DAC420FD2FF262368002B02
:101460000CD0FFF747FD01002000FFF7E9FFA68041
:10147000BFF35F8F0834AC42F0D370BDFFF73AFD85
:1014800001002000FFF7DCFF2671BFF35F8F0834F7
:10149000AC42E3D3F1E7C0464002002048020020FE
:1014A0000A4B1968EFF3108072B60A68002AFCD064
:1014B000BFF35F8F1B68BFF35F8F00221A6080F35A
:1014C000108840BF002000217047C0465C0A002001
:1014D000F0B5DE4657464E464546E0B583B0EFF3DD
:1014E000058203231340B54A990052580091904653
:1014F00001229A40B24B93461A60B24B01932EE000
:1015000043469B881BB2002B00DB99E043469B7946
:10151000002B00D0DDE0434608241C5F002C00DADD
:1015200006E143465A6963001B19DB00D3189D6826
:10153000DC686B1C00D107E1A34B00999C46614419
:101540009A6A0B69A81A9B1A984200D20D619E48AC
:1015500000F03EFB8C4200DDEAE000D126E15B4674
:1015600099484363434608229B5E9946002BC7DB9C
:10157000424652695B0092464B44DB009A44534614
:101580009E68DF6800F024FB8F42B9DC00D100E1E7
:10159000002F00DAE1E05246534654691B69019A74
:1015A000934200D1D4E0414652460820085E52885A
:1015B000000421001043984704000D0023002B4332
:1015C00000D1CAE0002D00DBE7E030003900001B4D
:1015D000A94153469860D96000229A5E002A8FDBA9
:1015E00043465D6953009C18E4002C19A768E46821
:1015F0008C4200DD84E702D1874200D980E746466D
:10160000328108360DE08C4200D1D3E01E00002369
:10161000F25E002A0ADB53009C18E4002C19A7682C
:10162000E4689B18DB00EB188C42ECDD53461A8013
:101630004B46338043469B881BB2002B00DA65E79C
:1016400043461A69EFF3108172B61368002BFCD081
:10165000BFF35F8F43469E88012342465B429380DF
:1016600036B21369BFF35F8F00221A6081F31088CE
:10167000002E00DA4AE743465D69083342469C463D
:101680007700BF19FF00EF19BB6860469846082332
:10169000D15E9246FC68002907DA0EE0A2424FD0E4
:1016A00018000023C15E002906DB4B005B18DB003D
:1016B000EB18DA68A242F1DD524606800023FE5E96
:1016C0003980002EDCDA904643469B79002B00D10E
:1016D00021E7002342469371434646460821595E5E
:1016E00008364B1C24D047468946556902E006005F
:1016F0004B1C18D04B005B18DB00E8180A008C4626
:10170000E95E43881BB2002BF1DA01235B42DC1750
:101710008360C4604A4503D031803B8903803A81AD
:10172000E1464B1CE6D14C46B846002C00DBF8E6FF
:1017300040BF03B0F0BCBB46B246A946A046F0BDD0
:101740009A684245ACD9B7E7631C00D0F4E6FEE6E0
:10175000200023699847002825D1534642461B881C
:1017600013811269EFF3108372B611680029FCD05F
:10177000BFF35F8F4246514652880A80424649462F
:1017800051801269BFF35F8F0021116083F31088CD
:10179000B6E6864200D8FBE6B2E60B4800F018FA3F
:1017A0000019694115E76568246807E7854200D894
:1017B000D5E6BDE7874200D828E737E74009002093
:1017C0003C700540D11400100040054070B52E4C0F
:1017D0002569002D04D00A212C48FFF731FE70BD89
:1017E0002B4E0321300000F0E9F9E660FFF782FBA1
:1017F000284B03229C46D02322701B061B68012124
:101800006370254B6044A3600F2380002061022099
:10181000638063694942A18019800231198647318A
:101820001D83585218315A5275325C399952183208
:1018300001319952183201319952183201319952BD
:10184000083518329D52023118329952183201313E
:101850009952183201319952183201319952183285
:10186000013199521832013199520C4B0C49DC600C
:1018700001303562FFF77CFB01210320FFF766FB97
:10188000084B1D60A7E7C046E40100205C0A002069
:101890000040054040000034FFFF100040090020D8
:1018A000D11400103860054070B501000469EFF3F1
:1018B000108C72B620680028FCD0BFF35F8F022026
:1018C0000D5E4C6968004019C0002418002D37DBFC
:1018D000208848800869BFF35F8F002606608CF37C
:1018E0001088E36063880498013320615B040598E5
:1018F0005B0CA26060611A1C002B1FD093B22804FD
:10190000628018430A69EFF3108C72B61368002BDB
:10191000FCD0BFF35F8F8B8823808D800B69BFF372
:101920005F8F00221A608CF310880B7801329A4086
:10193000CB6808498C4663441A6070BD0122DDE71C
:101940000B69BFF35F8F00221A608CF310880120AF
:101950004042F2E73C20000010B543890A1493424C
:101960001ADD53009B184269DB00D3180469EFF3BA
:10197000108C72B62268002AFCD0BFF35F8F5A88A1
:10198000090494B2090C8A4208D00369BFF35F8F3F
:1019900000221A608CF31088002010BD80221202F1
:1019A00014435C80012302698371BFF35F8F0021C0
:1019B00011608CF31088044902788C469340C26809
:1019C000012062441360E8E73C200000F0B5040009
:1019D0000D0006267642F717C64636196F4100B548
:1019E00082B08F4214D811D000F0FAF832003B00D8
:1019F000121A8B41002B17DC002B47D02000290046
:101A000000F02CF902B080BCB846F0BD8642EBD99C
:101A10000022002316001F0000F0E2F832003B0015
:101A2000121A8B41002BE7DD00F0DAF832003B00A0
:101A3000121A8B41002B0ADB00230193154B320055
:101A4000009315483B00FFF72FFF0028D6DB00234B
:101A50009C46B046114A124E736A9F4204D8B16A3E
:101A60008845CBD99F42C9D11168EFF3108072B677
:101A70000B68002BFCD0BFF35F8F1368BFF35F8F41
:101A80006146196080F3108820BFE5E7002AB5D0D1
:101A9000CAE7C046A1140010E40100205C0A00203F
:101AA0000040054070B5060000F09AF8FA220400E4
:101AB0000D00002330000021920000F075FC80230F
:101AC000001969411B06994202D301200249404294
:101AD000FFF77CFF70BDC046FFFFFF7FF0B5CE462D
:101AE000474680B504000D0083B0EFF305878846B4
:101AF000002F3ED12E4EA1463378F06804339B0070
:101B0000816A1B58601A5B1A98420ED320BF29497C
:101B100000204B6AAB4203D38A6A0130944231D829
:101B200003B0C0BCB946B046F0BD00F059F8220081
:101B30002B00121A8B41002B2FDB1F4B220000932E
:101B400030002B000197FFF7AFFE011E25DD194B7A
:101B50005A6AAA421BD220BF3000FFF7FDFE154A89
:101B60000020536A4345DBD3926A01309145D7D9AF
:101B700008E0104900204B6AAB42D1D38A6A013099
:101B8000A242CDD25B1B5A1E9341D8B2C8E79B6AD2
:101B90009C42E1D9AA42DFD1DDE7064A0020536A20
:101BA0004345BDD3926A01209145B9D9EAE7C046C1
:101BB000E401002000400540A114001010B5024AC5
:101BC0000248FFF775F910BD4C2F0010F0080020F7
:101BD0000300416A0A00986A596A8A42FAD170473A
:101BE000034B596A0A00986A596A9142FAD17047C0
:101BF0000040054070B504000D00174A536A1900F3
:101C0000966A536A8B42FAD13000190024184D416C
:101C1000AB4216D813D0104A2B00526A954203D912
:101C20000D494A6A9A42FCD39A4207D10A4A02E015
:101C3000516A994202D1916AA142F9D370BDA6427C
:101C4000E9D9054B5B6A1C005A1CEFD00123012423
:101C50006442E5175B42E3E700400540064A536AE9
:101C60009942FCD807D1044B02E05A6A914202D152
:101C70009A6A8242F9D3704700400540F8B50400E3
:101C800006200D0000F078F9002844D0374B384981
:101C9000E3185A1E93418022120494465B429B0D26
:101CA000344A9B0563441360334A136018000A6882
:101CB0009043FBD12D4B314AE31859424B418021CF
:101CC0005B0049000620995200F056F92900C00037
:101CD00000F0D8FA0130C3091ED140270122626208
:101CE000A362266BF30722D4E36A254B0620E5188E
:101CF00000232B60266300F03FF93900800000F0DC
:101D0000C1FA7023E26A5A400E3313402B601D4B18
:101D100023630323A364F8BD1B4A93421ED9002307
:101D20001A4A1B4F6262A362266BF307DCD5194B7C
:101D3000144AE3181A60656AA36A0620AD01ED181B
:101D400000F01AF9144900F09DFAAD0201002800D4
:101D500000F098FA0021FFF74DFFC5E74006800E1E
:101D60009F011A003F180300B9E7C0460080FCBF7E
:101D700008C0004000E0004000F00040600A002081
:101D80002C10000001030000FEFF0000FFFF000018
:101D9000C0FF3F00303000004E0E0000F8B5DE46B8
:101DA0004E4657464546E0B58B4605000A99180051
:101DB000160000F067FA0A9B6C001F02324B641990
:101DC0009C46A4006444636881469F4200D96760D2
:101DD0002B1FDBB29846012B30D9C02380229B01F8
:101DE000E31812011A60294BAD0059599A4600298F
:101DF0001BD17301E026226853401E4080234246D7
:101E00005B01E3181E60012A30D9802380229B01E8
:101E1000E31812011A6053464A4667605A51F0BCF3
:101E2000BB46B246A946A046F8BD586900F02AFA5A
:101E3000013043001B18033BFDD2DAE75B46012B60
:101E4000CBD1C02303229B01E3181A60023AA36896
:101E50001A42FCD07301E0262268AD0053401E40B8
:101E600080230A4A5B019246E3181E605A462168A5
:101E7000514003220A401A6001225B469A40A3683F
:101E80001A42FCD0C1E7C04600800040F4080020A0
:101E9000F0B546464F46D646C0B51F00344B440009
:101EA0009C462418A4006444636888461600FF2BEF
:101EB00002D880235B006360031FDBB29A46012BCC
:101EC00030D9C02380229B01E31812011A60294BEC
:101ED00085005959994600291BD17301E0262268D3
:101EE00053401E40802352465B01E3181E60012AC6
:101EF00030D9802380229B01E31812011A608023CD
:101F00005B0063604B465F51E0BCBA46B146A846F1
:101F1000F0BD586900F0B6F9013043001B18033BCF
:101F2000FDD2DAE74346012BCBD1C02303229B012C
:101F3000E3181A60023AA3681A42FCD07301E02643
:101F40002268850053401E4080230A4A5B01914667
:101F5000E3181E6042462168514003220A401A607D
:101F6000012342469340A2681342FCD0C1E7C04619
:101F700000800040F4080020014B8000C0587047EA
:101F8000F4080020F8B5040021481E0017000D00D9
:101F900000F078F90100380000F074F9069B36046F
:101FA0001B031E432368002B20DB1A4B1A49E3183E
:101FB0005A1E93418022920194465B421B0B174AA2
:101FC0001B0363441360164A13601F000A6897439B
:101FD000FBD1144B2560E2182123A0601360236815
:101FE000002BFCDA0823E6601360F8BD3F2322686B
:101FF0001340AB42D9D1A3681B051B0D8342D4D13A
:10200000EE22E368D2021340B342CED1EDE7C046E0
:10201000001BB7000040FDBF08C0004000E00040CA
:1020200000F00040043000008023024A9B000B4374
:10203000D362704700800540142310B50100188852
:1020400004331B88984710BD162310B5010018886B
:1020500002331B88984710BDF8B54746CE4680B579
:102060000F1E19D0142399460433040000250126BD
:1020700098464B461888434621681B88984701C4F8
:10208000431E9841013540420640AF42F1D1300035
:10209000C0BCB946B046F8BD0126F8E7AA23064AF7
:1020A0001B0113602F230549D360054B196053684A
:1020B000002BFCDA7047C0460040024000B0FA0036
:1020C000006002407047C04610B50148FEF7C2FEEE
:1020D000702F001070B5074D074EB54209D200248D
:1020E000013E761BB60808CD984723000134B34261
:1020F000F9D170BD502E00108C2E0010054B064AF1
:1021000006491A60064A074B1A6010000B6898438C
:10211000FBD1704700E00040BFCDFBFE08C000408F
:10212000FE7F3C0000F00040044BDB6C002B03D131
:102130008022034BD2021A607047C0460000115043
:102140004C201150044A054B1A60054A1368DB0104
:102150008033FBD17047C046FFFFFF0100F0004015
:1021600008C000404022034B9A675A671A67DA6634
:102170007047C04600F0014010B5FEF7C7FE10BD25
:1021800070B5044D044CA968C022200000F0BAF9D3
:10219000AC6070BD00ED00E000000020002310B531
:1021A000294C82B0A367FFF779FF0122274B1A6001
:1021B000636C012BFCD10322254B1A60224A936BDE
:1021C000012BFCD1013300930121224A2248043320
:1021D000FFF7D8FE052301210093204A2048FFF78E
:1021E000D1FE0022022104201E4BFFF751FE0022E7
:1021F000012105201C4BFFF74BFE00220021072088
:102200001A4BFFF745FE002200210820174BFFF76D
:102210003FFE8023DB000093002200210920134BA6
:10222000FFF7BCFD0022104B00210620FFF730FE17
:102230000420FFF7A1FE0E4900F024F80100002061
:10224000FFF7F2FE02B010BD008000403CB000403D
:1022500030B00040002F685900800240008C864753
:1022600000C00240001BB70040597307006CDC023D
:1022700040420F0001480421014B18470002002092
:1022800059200010114A936F9B0813D210665166B3
:10229000002905D0FFE7FFE7FFE7516F106F704798
:1022A00004B5002801D00020C04300F0C1FD00218A
:1022B00004BDC046F0B5146E556E576F166FFFF72C
:1022C000E5FF1466556657671667F0BD000000D03D
:1022D00010B50148FEF7BEFD7C2F0010132370B52A
:1022E0001D78012D19D014DD1D48FFF7ADFE060045
:1022F0001C48FFF7A9FE1C4C80223100200000F092
:1023000001F9022D06D01948FFF796FE184B186008
:1023100070BD154C174BA364F5E7174B124C2360A7
:102320006360A360E36023616361A361E36123628F
:102330006362A362E36223636363A363E36323646F
:102340006364A364E36423656365A365E36523664F
:102350006366A366E36623676367A367E367D9E7FA
:102360005344000053460000D80300204C330000C3
:10237000580900207D230010D122001007B56046C7
:1023800001880A0A0230DF2AFAD1C9B2820804D3CE
:10239000028840880004104300E00068014A505061
:1023A000039007BDD803002051434343C9188C460E
:1023B000110C83B24B4310B4040C614392B280B24F
:1023C000504362431C041B0C001910BC59411304F8
:1023D000120CC01851416144704700004840414010
:1023E00048400E4B5B6818470C4B1B6818470C4A5B
:1023F000936F9B0802D2094BDB681847F0B5146E47
:10240000556E576F166FFFF7F6FF054A146655664F
:1024100057671667F0BD014B9B6818475C090020A1
:10242000000000D0491A002808D108467047000073
:10243000C10FC90700D54042002817D0F44603B4A5
:102440000B4B1B68984706BC81409E384042803148
:1024500007D20B0607D04900490AC00510430843BC
:1024600060470130F8E7490A8902F5E77047000044
:1024700058090020014B5B6A184700005C090020E6
:1024800010B50148FEF7E6FC382F0010132310B5F5
:1024900010481C78FFF7D8FD0100012C0AD003DD9D
:1024A00080220D4800F02EF80C48FFF7C5FD0C4BBC
:1024B000186010BD084C5422200000F023F82200C0
:1024C000084980322368002B00D1216004349442F3
:1024D000F8D1E9E7534600005C0900204C330000C6
:1024E000580900208124001001480421014B18479D
:1024F0001002002059200010014B1B6818470000F3
:1025000010020020014B5B681847000010020020F9
:1025100010B5002800D110BD00F026F9FBE7C04639
:1025200010B5094A0300146884B0002C08D00122B9
:1025300000910648524203A9A047012004B010BDF3
:1025400000F05EF90020F9E72409002011250010B1
:1025500000BEFDE710B5FFF7FBFFC04670B5FFF703
:10256000B9FD074D074EB54209D20024013E761B46
:10257000B60808CD984723000134B342F9D170BDA5
:102580008C2E0010902E0010030010B508001100D2
:102590001B68984710BDC046F0B5C64600B5437DE0
:1025A00007000D001600002B38D0002A2EDD002178
:1025B0006A1E90466A5C037D4C1C00200A2A0CD0DF
:1025C000A64216D043461B5D21000D3B5A425341A3
:1025D0006A5CDBB24C1C0A2AF2D1002BF0D1884293
:1025E00017DB022110483B689847A64207D020001D
:1025F000E8E7864203DD311A3B6828189847AD1991
:10260000013D2B780D3B5A4253413B7580BCB84687
:10261000F0BD091A3B6828189847E2E703681100E3
:1026200028009847F2E7C04688300010F0B5DE4633
:1026300057464E464546E0B585B017001C000600DB
:102640000D00FFF7CDFA0023314A12184B418021CB
:1026500009068B4202D301222E4B52422E4908001A
:102660008A4600F0EDFB01906B1C03D1300000F0B6
:10267000A5FB0500002C26D0284B9846284B1C684B
:10268000002C15D0002F21D1264F02E02469002C08
:102690000ED02368002BF9D03B68002B01D09C4260
:1026A000F4D120002A003100C0472469002CF0D169
:1026B000019B002B28D1280005B0F0BCBB46B246D8
:1026C000A946A046F0BD184B9846D7E7154B99464A
:1026D00002ABDF1D0A239B4602E02469002CE7D0F1
:1026E0002368002BF9D04B461B68002B01D0A34276
:1026F000F3D12A0031002000C0475B460122390097
:1027000020003B70C047E8E7504600F089FBD2E765
:1027100040420F00FFFFFF7F40020020992500107C
:102720001C09002020090020892500100A4A13688E
:10273000002B05D10CE01A001B691032002B07D0CA
:102740009842F8D1002902D10369136001617047F2
:102750000029FCD01060FAE71C09002010B500F039
:102760003BF9012010BDC046F0B5CE46474680B5C6
:1027700083B06B460600DD1D2870FFF731FA002399
:102780001A4A12184B41802109068B4202D30122BA
:10279000174B524217490800884600F051FB164B70
:1027A00081461C68002C14D0144F02E02469002CD0
:1027B0000FD02368002BF9D03B68002B01D09C423E
:1027C000F4D1200001222900FFF7E6FE2469002C45
:1027D000EFD14B46002B05D1300003B0C0BCB94649
:1027E000B046F0BD404600F01BFBF5E740420F004D
:1027F000FFFFFF7F400200201C090020200900206D
:1028000070B5040000F0DAFA01230100050001228E
:102810002000FFF70BFF084B1C68002C06D06368F4
:10282000002B05D098472469002CF8D1280070BDF2
:102830002469002CF3D1F9E71C090020F0B5002928
:1028400015DD0E4B0D271A680D4B0E4CD3185D424B
:102850006B41451820215B001E5F0478A64207D01B
:1028600093691942FCD101301460A842F5D1F0BD42
:1028700093691942FCD11760F2E7C046640A002050
:102880000080FCBF600A0020204B70B504000D1EC4
:102890001E682ADD002010211D4B013C1A68936937
:1028A000194214D1013093691942FCD113682354A1
:1028B0008542F4D1002E08D050239363516B183B0E
:1028C0000B4014498C466244136028000CE0002E33
:1028D00008D050239363516B183B0B400D498C4635
:1028E0006244136000280DD070BD002E0AD0502223
:1028F000074B1B689A63596B183A0A4005498C4686
:1029000063441A6003204042EEE7C046E808002016
:10291000640A002034100000064B10B51B68002B21
:1029200006D00021044A12689163044A106898474F
:1029300010BDC046E8080020640A0020EC08002012
:102940000822034B19688B691A42FCD17047C046B4
:10295000640A0020F8B51A4F1A4B3A680500D318DC
:1029600058424341184E14331C003368002D02D0E6
:10297000002B0FD0F8BD002BFCD000212000956368
:10298000FEF7E4FA20001149FEF716FC104B356003
:102990001D60EFE70E4B200019600C493560FEF713
:1029A000E7FA01212000FEF7D1FA50223B689A6332
:1029B000596B183A0A4007498C4663441A60D9E7B4
:1029C000640A00200080FCBFE808002019290010DC
:1029D000EC080020341000000D4B10B51B780D4B97
:1029E0000D4C1B780D4B02211B780D4B00202360F2
:1029F000FEF77AF902210120FEF776F9E12120683D
:102A00004902FFF73BF901210648FFF78FFE10BD91
:102A1000CC300010C8300010640A0020C430001010
:102A20000040034020020020F0B557464E46DE46E7
:102A300045468446E0B583B01F000CAB187863466A
:102A4000914600221B680190DA6601325960DA660D
:102A5000002F4FDD7A1E90466246127901269202BF
:102A6000802493463A0046407602802537000020B5
:102A700046461021A2469046AD00841B6242544156
:102A80004A4664423C4000945C46125C2243009CEF
:102A900022431A615A6B1142FCD052469C58002CBA
:102AA00010D1B04221D00022013093468045E4D1BC
:102AB0006346019A1A7103B0F0BCBB46B246A94600
:102AC000A046F0BD5A6D012293465A6B2A42FCD0B3
:102AD0001A6E5A46002AE6D0002C03D0E30701D430
:102AE0002407E5D401204042E2E7019A002ADAD126
:102AF0009346EAE70020DBE7F8B5DE4657464E4648
:102B000045468346E0B505200C00FFF735FA060080
:102B1000600821008019FFF7B5FB43009846804408
:102B2000070005214046FFF7ADFB3B1A9A461E4BB6
:102B30008146700080199C4231D81C49FFF7A2FBE6
:102B4000451C5B461C680023E366226804335A4038
:102B50000233134080225201A21813605346E361EE
:102B60004B462362434601204F2B03D95021404658
:102B7000FFF788FBA023E050E36F39005D400C4B6A
:102B80002D042D0CE3181D6001233000E366FFF7D0
:102B900079FBF0BCBB46B246A946A046F8BD054944
:102BA000FFF770FB451CCCE73F420F008096980072
:102BB0007C10000040787D010F4A70B5821A531EC8
:102BC0009A410E4BD20008321A600D4B0D4C1A6020
:102BD000150023689D432B1EFAD166240268FF343A
:102BE0000571D5661460633C8833FF3CD5639563FB
:102BF000D450FFF781FF70BD3802002000E0004094
:102C000000F0004008C0004010B582B004AC247849
:102C10000094FFF709FF02B010BDC046F0B557465B
:102C2000DE464E4645468846E0B583B0060005249C
:102C3000FEF728F9434684461C571879364B374A25
:102C4000F3181B0D9B009246D75801228240013A8F
:102C5000002C42DB2021091A8C423BDC1100A140F0
:102C600025000F4236D14146096889464146897997
:102C700000294DD1AA4093463A423FD18021890193
:102C800000228846002816D06146A44634004E46ED
:102C90009946030001915100705A404500D24019F5
:102CA000511912318900013208519342F3D8019B26
:102CB00064469C464B465A4617435246D750604698
:102CC000FEF7ECF8200003B0F0BCBB46B246A946C4
:102CD000A046F0BD01246442F1E72024241A0DD45B
:102CE0001100A14025008B46394205D109E01100B1
:102CF000A14025000F42B6D0013CF8D2092464421D
:102D0000DDE742461268914642469279002AB5D0E4
:102D100014246442D3E7C0460000E0AFD80400208A
:102D2000F0B501258D400468AC430460002B2ED023
:102D30004D006C18E400041926001F68C83637607F
:102D40009F68043677605F68DB68DC343760236037
:102D50006B18184DDB00AC468025C41864442D0662
:102D600025602560144C0D1D8C40846001242600D4
:102D7000AE40802508318C401F21AD014519C01897
:102D80000A40D8302E602C6002600020F0BD4D005B
:102D90006C18E400041926008027C8367F023760CB
:102DA000C0273F03B760F82704367F02DC34376062
:102DB0002360CDE7D01000000101010110B58307A9
:102DC0000AD00300032102E001330B4205D01A7838
:102DD000002AF9D1181A10BD030019680C4A0D4CCD
:102DE0008A188A4322420FD15968094A04338A1843
:102DF0008A43224208D15968054A04338A188A4313
:102E00002242F1D000E001331A78002AFBD1E1E739
:102E1000FFFEFEFE80808080F8B5C0460000000006
:102E200001B40248844601BC604700BF5D01002038
:102E300001B40248844601BC604700BF8501002000
:102E400001B40248844601BC604700BFC1000020B5
:102E5000FD2000102921001075220010E924001027
:102E6000DD2200108D2400109D210010452100104E
:102E700065210010792100105114001081210010EB
:102E8000CD170010C5200010290F0010B10200104E
:102E90004C45442056657264653A204C696761640C
:102EA0006F0000004C45442056657264653A204C22
:102EB000696761646F0A00004C454420566572647E
:102EC000653A204465736C696761646F00000000B7
:102ED0004C45442056657264653A204465736C69BC
:102EE0006761646F0A0000004C454420417A756CAC
:102EF0003A204C696761646F000000004C45442033
:102F0000417A756C3A204C696761646F0A00000071
:102F10004C454420417A756C3A204465736C69676E
:102F200061646F004C454420417A756C3A204465D9
:102F3000736C696761646F0A000000000A2A2A2A1C
:102F40002050414E4943202A2A2A0A0048617264CF
:102F50007761726520616C61726D20256420616CFF
:102F6000726561647920636C61696D65640000005D
:102F70004861726420617373657274006D69737364
:102F8000696E6720646F75626C652066756E637428
:102F9000696F6E0052656C6561736500626F6F7476
:102FA000325F77323571303830000000322E312EEA
:102FB000300000007069636F5F77000074617265B4
:102FC00066610000466562202037203230323500CD
:102FD0005541525420737464696E00005541525437
:102FE000207374646F757400554152542073746477
:102FF000696E202F207374646F75740004300010A4
:1030000004FF000021622312001242A2FF00000010
:1030100000FF00000000FF0000FFFF00FFFF0000B6
:10302000FF00FF00FFFFFF00888888004444440041
:103030000000000006005250D3F07542942F00109B
:1030400006005250E182887F9C2F001006005250EB
:10305000ABB36053AC2F001006005250BBFF3CB620
:10306000B42F001006005250861C0302BC2F001023
:10307000060052505422A29DC42F00100500525049
:10308000DE65F468583200100D0A00000600525048
:1030900053B4F4A1E82F00100800525012000000B1
:0830A0000800525092100000DC
:1030A80034300010403000104C3000105830001000
:1030B80064300010703000107C300010A030001018
:0830C800983000108C3000105C
:1030D000F0B5C646150000B504001E000268EFF307
:1030E000108172B61368002BFCD0BFF35F8F0423EE
:1030F000E356002B2DDB2268BFF35F8F00201060AA
:1031000081F31088D0221206127852B290469A4269
:1031100003D1002080BCB846F0BD00270BE0236837
:10312000BFF35F8F1F6081F310882800310000F02B
:1031300033F80028EDD12268EFF3108172B61368DE
:10314000002BFCD0BFF35F8F23797F2BE7D9434659
:1031500002E0D0231B061B6823712368BFF35F8F37
:1031600000221A6081F310880120D3E70268EFF390
:10317000108172B61368002BFCD0BFF35F8FFF2362
:1031800003710368BFF35F8F00221A6081F3108818
:1031900040BF70477047C04601B40248844601BC36
:1031A000604700BFDD1A00101000000000000000A2
:1031B000000001000000000000000000000002000C
:1031C00000000000000000000000030000000000FC
:1031D000000000000000FF000000000001B548688A
:1031E00001318E460047704609380149884701BDC4
:1031F0008D1300100000000000000000000000001F
:103200000000000000000000480200200000000054
:10321000503300004C3300005433000052330000A0
:103220004D5300004D430000533400004334000070
:103230003D28001041290010892800105529001050
:1032400000000000000100000040044000000000F9
:08325000000000000000000076
:04000005100001E9FD
:00000001FF
